{
  "_format": "hh-sol-artifact-1",
  "contractName": "Address",
  "sourceName": "@openzeppelin/contracts/utils/Address.sol",
  "abi": [
    {
      "inputs": [
        {
          "internalType": "address",
          "name": "_addressToQuery",
          "type": "address"
        }
      ],
      "name": "WETHBalance",
      "outputs": [
        {
          "internalType": "uint256",
          "name": "",
          "type": "uint256"
        }
      ],
      "stateMutability": "view",
      "type": "function"
    }
  ],
  "bytecode": "0x6103bd610081600b82828239805160001a60731461001957fe5b5a63996d79a5598160e01b8152602081600483336000905af158600e01573d6000803e3d6000fd5b3d6001141558600a015760016000f35b8051925060005b604081101561007257600081830152602081019050610058565b505050600052607381538281f3fe7300000000000000000000000000000000000000005a63996d79a5598160e01b8152602081600483336000905af158600e01573d6000803e3d6000fd5b3d6001141558600a015760016000f35b8051925060005b604081101561006d57600081830152602081019050610053565b505050146080604052600436106100905760003560e01c8063a05762131461009e575b60008061009b6101ec565b50505b6100e9600480360360208110156100bd576000806100ba6101ec565b50505b81019080803573ffffffffffffffffffffffffffffffffffffffff1690602001909291905050506100ff565b6040518082815260200191505060405180910390f35b600073420000000000000000000000000000000000000673ffffffffffffffffffffffffffffffffffffffff166370a08231836040518263ffffffff1660e01b8152600401808273ffffffffffffffffffffffffffffffffffffffff168152602001915050602060405180830381868061017761025a565b15801561018c576000806101896101ec565b50505b505a6101966102bd565b50505050501580156101b5573d6000803e3d60006101b26101ec565b50505b505050506040513d60208110156101d4576000806101d16101ec565b50505b81019080805190602001909291905050509050919050565b632a2a7adb598160e01b8152600481016020815285602082015260005b86811015610227578086015181604084010152602081019050610209565b506020828760640184336000905af158600e01573d6000803e3d6000fd5b3d6001141558600a015760016000f35b505050565b638435035b598160e01b8152836004820152602081602483336000905af158600e01573d6000803e3d6000fd5b3d6001141558600a015760016000f35b8051935060005b60408110156102b85760008183015260208101905061029e565b505050565b638540661f598160e01b81526102fc565b6000819050818311156102df578290505b92915050565b6000819050818310156102f6578290505b92915050565b836004820152846024820152606060448201528660648201526084810160005b8881101561033757808801518183015260208101905061031c565b506060828960a40184336000905af158600e01573d6000803e3d6000fd5b3d6001141558600a015760016000f35b815160408301513d6000853e8b8b82606087013350600060045af1505961038c8d3d6102e5565b8c0161039881876102ce565b5b828110156103b05760008152602081019050610399565b50839d505050505050505056",
  "linkReferences": {},
  "deployedLinkReferences": {}
}