{
  "_format": "hh-sol-artifact-1",
  "contractName": "Root",
  "sourceName": "contracts/Root.sol",
  "abi": [
    {
      "inputs": [],
      "stateMutability": "nonpayable",
      "type": "constructor"
    },
    {
      "anonymous": false,
      "inputs": [
        {
          "indexed": true,
          "internalType": "address",
          "name": "owner",
          "type": "address"
        },
        {
          "indexed": true,
          "internalType": "address",
          "name": "approved",
          "type": "address"
        },
        {
          "indexed": true,
          "internalType": "uint256",
          "name": "tokenId",
          "type": "uint256"
        }
      ],
      "name": "Approval",
      "type": "event"
    },
    {
      "anonymous": false,
      "inputs": [
        {
          "indexed": true,
          "internalType": "address",
          "name": "owner",
          "type": "address"
        },
        {
          "indexed": true,
          "internalType": "address",
          "name": "operator",
          "type": "address"
        },
        {
          "indexed": false,
          "internalType": "bool",
          "name": "approved",
          "type": "bool"
        }
      ],
      "name": "ApprovalForAll",
      "type": "event"
    },
    {
      "anonymous": false,
      "inputs": [
        {
          "indexed": true,
          "internalType": "address",
          "name": "from",
          "type": "address"
        },
        {
          "indexed": true,
          "internalType": "address",
          "name": "to",
          "type": "address"
        },
        {
          "indexed": true,
          "internalType": "uint256",
          "name": "tokenId",
          "type": "uint256"
        }
      ],
      "name": "Transfer",
      "type": "event"
    },
    {
      "inputs": [
        {
          "internalType": "address",
          "name": "to",
          "type": "address"
        },
        {
          "internalType": "uint256",
          "name": "tokenId",
          "type": "uint256"
        }
      ],
      "name": "approve",
      "outputs": [],
      "stateMutability": "nonpayable",
      "type": "function"
    },
    {
      "inputs": [
        {
          "internalType": "address",
          "name": "owner",
          "type": "address"
        }
      ],
      "name": "balanceOf",
      "outputs": [
        {
          "internalType": "uint256",
          "name": "",
          "type": "uint256"
        }
      ],
      "stateMutability": "view",
      "type": "function"
    },
    {
      "inputs": [],
      "name": "baseURI",
      "outputs": [
        {
          "internalType": "string",
          "name": "",
          "type": "string"
        }
      ],
      "stateMutability": "view",
      "type": "function"
    },
    {
      "inputs": [
        {
          "internalType": "uint256",
          "name": "tokenId",
          "type": "uint256"
        }
      ],
      "name": "getApproved",
      "outputs": [
        {
          "internalType": "address",
          "name": "",
          "type": "address"
        }
      ],
      "stateMutability": "view",
      "type": "function"
    },
    {
      "inputs": [
        {
          "internalType": "uint256",
          "name": "nodeId",
          "type": "uint256"
        }
      ],
      "name": "getDescendants",
      "outputs": [
        {
          "internalType": "uint256[]",
          "name": "",
          "type": "uint256[]"
        }
      ],
      "stateMutability": "view",
      "type": "function"
    },
    {
      "inputs": [
        {
          "internalType": "string",
          "name": "hash",
          "type": "string"
        }
      ],
      "name": "getNodeIdForHash",
      "outputs": [
        {
          "internalType": "uint256",
          "name": "",
          "type": "uint256"
        }
      ],
      "stateMutability": "view",
      "type": "function"
    },
    {
      "inputs": [
        {
          "internalType": "uint256",
          "name": "nodeId",
          "type": "uint256"
        }
      ],
      "name": "getNodeOwner",
      "outputs": [
        {
          "internalType": "address",
          "name": "",
          "type": "address"
        }
      ],
      "stateMutability": "view",
      "type": "function"
    },
    {
      "inputs": [],
      "name": "getRootCount",
      "outputs": [
        {
          "internalType": "uint256",
          "name": "",
          "type": "uint256"
        }
      ],
      "stateMutability": "view",
      "type": "function"
    },
    {
      "inputs": [
        {
          "internalType": "address",
          "name": "ownerAddr",
          "type": "address"
        }
      ],
      "name": "getRootsByOwner",
      "outputs": [
        {
          "internalType": "uint256[]",
          "name": "",
          "type": "uint256[]"
        }
      ],
      "stateMutability": "view",
      "type": "function"
    },
    {
      "inputs": [
        {
          "internalType": "string",
          "name": "",
          "type": "string"
        }
      ],
      "name": "hashes",
      "outputs": [
        {
          "internalType": "uint256",
          "name": "",
          "type": "uint256"
        }
      ],
      "stateMutability": "view",
      "type": "function"
    },
    {
      "inputs": [
        {
          "internalType": "address",
          "name": "owner",
          "type": "address"
        },
        {
          "internalType": "address",
          "name": "operator",
          "type": "address"
        }
      ],
      "name": "isApprovedForAll",
      "outputs": [
        {
          "internalType": "bool",
          "name": "",
          "type": "bool"
        }
      ],
      "stateMutability": "view",
      "type": "function"
    },
    {
      "inputs": [
        {
          "internalType": "string",
          "name": "hash",
          "type": "string"
        },
        {
          "internalType": "uint256",
          "name": "ancestorNodeId",
          "type": "uint256"
        }
      ],
      "name": "mintNode",
      "outputs": [
        {
          "internalType": "uint256",
          "name": "",
          "type": "uint256"
        }
      ],
      "stateMutability": "nonpayable",
      "type": "function"
    },
    {
      "inputs": [
        {
          "internalType": "string",
          "name": "hash",
          "type": "string"
        }
      ],
      "name": "mintRoot",
      "outputs": [
        {
          "internalType": "uint256",
          "name": "",
          "type": "uint256"
        }
      ],
      "stateMutability": "nonpayable",
      "type": "function"
    },
    {
      "inputs": [],
      "name": "name",
      "outputs": [
        {
          "internalType": "string",
          "name": "",
          "type": "string"
        }
      ],
      "stateMutability": "view",
      "type": "function"
    },
    {
      "inputs": [
        {
          "internalType": "uint256",
          "name": "tokenId",
          "type": "uint256"
        }
      ],
      "name": "ownerOf",
      "outputs": [
        {
          "internalType": "address",
          "name": "",
          "type": "address"
        }
      ],
      "stateMutability": "view",
      "type": "function"
    },
    {
      "inputs": [
        {
          "internalType": "address",
          "name": "from",
          "type": "address"
        },
        {
          "internalType": "address",
          "name": "to",
          "type": "address"
        },
        {
          "internalType": "uint256",
          "name": "tokenId",
          "type": "uint256"
        }
      ],
      "name": "safeTransferFrom",
      "outputs": [],
      "stateMutability": "nonpayable",
      "type": "function"
    },
    {
      "inputs": [
        {
          "internalType": "address",
          "name": "from",
          "type": "address"
        },
        {
          "internalType": "address",
          "name": "to",
          "type": "address"
        },
        {
          "internalType": "uint256",
          "name": "tokenId",
          "type": "uint256"
        },
        {
          "internalType": "bytes",
          "name": "_data",
          "type": "bytes"
        }
      ],
      "name": "safeTransferFrom",
      "outputs": [],
      "stateMutability": "nonpayable",
      "type": "function"
    },
    {
      "inputs": [
        {
          "internalType": "address",
          "name": "operator",
          "type": "address"
        },
        {
          "internalType": "bool",
          "name": "approved",
          "type": "bool"
        }
      ],
      "name": "setApprovalForAll",
      "outputs": [],
      "stateMutability": "nonpayable",
      "type": "function"
    },
    {
      "inputs": [
        {
          "internalType": "bytes4",
          "name": "interfaceId",
          "type": "bytes4"
        }
      ],
      "name": "supportsInterface",
      "outputs": [
        {
          "internalType": "bool",
          "name": "",
          "type": "bool"
        }
      ],
      "stateMutability": "view",
      "type": "function"
    },
    {
      "inputs": [],
      "name": "symbol",
      "outputs": [
        {
          "internalType": "string",
          "name": "",
          "type": "string"
        }
      ],
      "stateMutability": "view",
      "type": "function"
    },
    {
      "inputs": [
        {
          "internalType": "uint256",
          "name": "index",
          "type": "uint256"
        }
      ],
      "name": "tokenByIndex",
      "outputs": [
        {
          "internalType": "uint256",
          "name": "",
          "type": "uint256"
        }
      ],
      "stateMutability": "view",
      "type": "function"
    },
    {
      "inputs": [
        {
          "internalType": "address",
          "name": "owner",
          "type": "address"
        },
        {
          "internalType": "uint256",
          "name": "index",
          "type": "uint256"
        }
      ],
      "name": "tokenOfOwnerByIndex",
      "outputs": [
        {
          "internalType": "uint256",
          "name": "",
          "type": "uint256"
        }
      ],
      "stateMutability": "view",
      "type": "function"
    },
    {
      "inputs": [
        {
          "internalType": "uint256",
          "name": "tokenId",
          "type": "uint256"
        }
      ],
      "name": "tokenURI",
      "outputs": [
        {
          "internalType": "string",
          "name": "",
          "type": "string"
        }
      ],
      "stateMutability": "view",
      "type": "function"
    },
    {
      "inputs": [],
      "name": "totalSupply",
      "outputs": [
        {
          "internalType": "uint256",
          "name": "",
          "type": "uint256"
        }
      ],
      "stateMutability": "view",
      "type": "function"
    },
    {
      "inputs": [
        {
          "internalType": "address",
          "name": "from",
          "type": "address"
        },
        {
          "internalType": "address",
          "name": "to",
          "type": "address"
        },
        {
          "internalType": "uint256",
          "name": "tokenId",
          "type": "uint256"
        }
      ],
      "name": "transferFrom",
      "outputs": [],
      "stateMutability": "nonpayable",
      "type": "function"
    }
  ],
  "bytecode": "0x60806040523480156200001c57600080620000196200024b565b50505b506040518060400160405280600481526020017f526f6f74000000000000000000000000000000000000000000000000000000008152506040518060400160405280600281526020017f5254000000000000000000000000000000000000000000000000000000000000815250620000a16301ffc9a760e01b6200012360201b60201c565b8160069080519060200190620000b9929190620002bb565b508060079080519060200190620000d2929190620002bb565b50620000eb6380ac58cd60e01b6200012360201b60201c565b62000103635b5e139f60e01b6200012360201b60201c565b6200011b63780e9d6360e01b6200012360201b60201c565b50506200047d565b63ffffffff60e01b817bffffffffffffffffffffffffffffffffffffffffffffffffffffffff19161415620001cb576040517f08c379a000000000000000000000000000000000000000000000000000000000815260040180806020018281038252601c8152602001807f4552433136353a20696e76616c696420696e746572666163652069640000000081525060200191505060405180910390620001c86200024b565b50505b6001600080837bffffffffffffffffffffffffffffffffffffffffffffffffffffffff19167bffffffffffffffffffffffffffffffffffffffffffffffffffffffff1916815260200190815260200160002060006101000a816200022e62000387565b8160ff0219169083151502179062000245620003ec565b50505050565b632a2a7adb598160e01b8152600481016020815285602082015260005b868110156200028857808601518160408401015260208101905062000268565b506020828760640184336000905af158600e01573d6000803e3d6000fd5b3d6001141558600a015760016000f35b505050565b8280620002c762000387565b600181600116156101000203166002900490600052602060002090601f0160209004810192826200030757600085620002ff620003ec565b505062000374565b82601f106200032d57805160ff1916838001178562000325620003ec565b505062000374565b828001600101856200033e620003ec565b5050821562000374579182015b82811115620003735782518262000361620003ec565b5050916020019190600101906200034b565b5b50905062000383919062000453565b5090565b6303daa959598160e01b8152836004820152602081602483336000905af158600e01573d6000803e3d6000fd5b3d6001141558600a015760016000f35b8051935060005b6040811015620003e757600081830152602081019050620003cb565b505050565b6322bd64c0598160e01b8152836004820152846024820152600081604483336000905af158600e01573d6000803e3d6000fd5b3d6001141558600a015760016000f35b60005b60408110156200044e5760008183015260208101905062000432565b505050565b5b8082111562000479576000816000906200046d620003ec565b50505060010162000454565b5090565b613f4d806200048d6000396000f3fe6080604052348015610019576000806100166137b2565b50505b506004361061017c5760003560e01c8063685e0dc7116100e7578063a22cb465116100a0578063bc3a1d411161007a578063bc3a1d4114610c21578063c87b56dd14610cdc578063e985e9c514610d8c578063fa12779c14610e0f5761017c565b8063a22cb46514610a13578063a65d24da14610a6c578063b88d4fde14610af85761017c565b8063685e0dc7146106665780636c0360eb1461075957806370a08231146107dc578063853848141461083d57806395d89b41146108df5780639778b1e9146109625761017c565b806323b872dd1161013957806323b872dd146104005780632f745c591461047757806342842e0e146104e25780634f6ccce7146105595780635d3c373f146105a45780636352211e146106055761017c565b806301ffc9a71461018a57806306fdde03146101f6578063081812fc14610279578063095ea7b3146102da57806318160ddd14610331578063194583b01461034f575b6000806101876137b2565b50505b6101de600480360360208110156101a9576000806101a66137b2565b50505b8101908080357bffffffffffffffffffffffffffffffffffffffffffffffffffffffff19169060200190929190505050610e2d565b60405180821515815260200191505060405180910390f35b6101fe610e9b565b6040518080602001828103825283818151815260200191508051906020019080838360005b8381101561023e578082015181840152602081019050610223565b50505050905090810190601f16801561026b5780820380516001836020036101000a031916815260200191505b509250505060405180910390f35b6102ae60048036036020811015610298576000806102956137b2565b50505b8101908080359060200190929190505050610f59565b604051808273ffffffffffffffffffffffffffffffffffffffff16815260200191505060405180910390f35b61032f600480360360408110156102f9576000806102f66137b2565b50505b81019080803573ffffffffffffffffffffffffffffffffffffffff16906020019092919080359060200190929190505050611004565b005b61033961115a565b6040518082815260200191505060405180910390f35b6103ea6004803603602081101561036e5760008061036b6137b2565b50505b8101908080359060200190640100000000811115610394576000806103916137b2565b50505b8201836020820111156103af576000806103ac6137b2565b50505b803590602001918460018302840111640100000000831117156103da576000806103d76137b2565b50505b909192939192939050505061116b565b6040518082815260200191505060405180910390f35b6104756004803603606081101561041f5760008061041c6137b2565b50505b81019080803573ffffffffffffffffffffffffffffffffffffffff169060200190929190803573ffffffffffffffffffffffffffffffffffffffff169060200190929190803590602001909291905050506111a4565b005b6104cc60048036036040811015610496576000806104936137b2565b50505b81019080803573ffffffffffffffffffffffffffffffffffffffff16906020019092919080359060200190929190505050611223565b6040518082815260200191505060405180910390f35b61055760048036036060811015610501576000806104fe6137b2565b50505b81019080803573ffffffffffffffffffffffffffffffffffffffff169060200190929190803573ffffffffffffffffffffffffffffffffffffffff1690602001909291908035906020019092919050505061127e565b005b61058e60048036036020811015610578576000806105756137b2565b50505b810190808035906020019092919050505061129e565b6040518082815260200191505060405180910390f35b6105d9600480360360208110156105c3576000806105c06137b2565b50505b81019080803590602001909291905050506112c1565b604051808273ffffffffffffffffffffffffffffffffffffffff16815260200191505060405180910390f35b61063a60048036036020811015610624576000806106216137b2565b50505b8101908080359060200190929190505050611305565b604051808273ffffffffffffffffffffffffffffffffffffffff16815260200191505060405180910390f35b61074360048036036020811015610685576000806106826137b2565b50505b81019080803590602001906401000000008111156106ab576000806106a86137b2565b50505b8201836020820111156106c6576000806106c36137b2565b50505b803590602001918460018302840111640100000000831117156106f1576000806106ee6137b2565b50505b91908080601f016020809104026020016040519081016040528093929190818152602001838380828437600081840152601f19601f82011690508083019250505050505050919291929050505061133c565b6040518082815260200191505060405180910390f35b610761611371565b6040518080602001828103825283818151815260200191508051906020019080838360005b838110156107a1578082015181840152602081019050610786565b50505050905090810190601f1680156107ce5780820380516001836020036101000a031916815260200191505b509250505060405180910390f35b610827600480360360208110156107fb576000806107f86137b2565b50505b81019080803573ffffffffffffffffffffffffffffffffffffffff16906020019092919050505061142f565b6040518082815260200191505060405180910390f35b6108886004803603602081101561085c576000806108596137b2565b50505b81019080803573ffffffffffffffffffffffffffffffffffffffff16906020019092919050505061150d565b6040518080602001828103825283818151815260200191508051906020019060200280838360005b838110156108cb5780820151818401526020810190506108b0565b505050509050019250505060405180910390f35b6108e76115b9565b6040518080602001828103825283818151815260200191508051906020019080838360005b8381101561092757808201518184015260208101905061090c565b50505050905090810190601f1680156109545780820380516001836020036101000a031916815260200191505b509250505060405180910390f35b6109fd600480360360208110156109815760008061097e6137b2565b50505b81019080803590602001906401000000008111156109a7576000806109a46137b2565b50505b8201836020820111156109c2576000806109bf6137b2565b50505b803590602001918460018302840111640100000000831117156109ed576000806109ea6137b2565b50505b9091929391929390505050611677565b6040518082815260200191505060405180910390f35b610a6a60048036036040811015610a3257600080610a2f6137b2565b50505b81019080803573ffffffffffffffffffffffffffffffffffffffff1690602001909291908035151590602001909291905050506118f4565b005b610aa160048036036020811015610a8b57600080610a886137b2565b50505b8101908080359060200190929190505050611ac3565b6040518080602001828103825283818151815260200191508051906020019060200280838360005b83811015610ae4578082015181840152602081019050610ac9565b505050509050019250505060405180910390f35b610c1f60048036036080811015610b1757600080610b146137b2565b50505b81019080803573ffffffffffffffffffffffffffffffffffffffff169060200190929190803573ffffffffffffffffffffffffffffffffffffffff1690602001909291908035906020019092919080359060200190640100000000811115610b8757600080610b846137b2565b50505b820183602082011115610ba257600080610b9f6137b2565b50505b80359060200191846001830284011164010000000083111715610bcd57600080610bca6137b2565b50505b91908080601f016020809104026020016040519081016040528093929190818152602001838380828437600081840152601f19601f820116905080830192505050505050509192919290505050611b43565b005b610cc660048036036040811015610c4057600080610c3d6137b2565b50505b8101908080359060200190640100000000811115610c6657600080610c636137b2565b50505b820183602082011115610c8157600080610c7e6137b2565b50505b80359060200191846001830284011164010000000083111715610cac57600080610ca96137b2565b50505b909192939192939080359060200190929190505050611bc4565b6040518082815260200191505060405180910390f35b610d1160048036036020811015610cfb57600080610cf86137b2565b50505b8101908080359060200190929190505050611dcc565b6040518080602001828103825283818151815260200191508051906020019080838360005b83811015610d51578082015181840152602081019050610d36565b50505050905090810190601f168015610d7e5780820380516001836020036101000a031916815260200191505b509250505060405180910390f35b610df760048036036040811015610dab57600080610da86137b2565b50505b81019080803573ffffffffffffffffffffffffffffffffffffffff169060200190929190803573ffffffffffffffffffffffffffffffffffffffff1690602001909291905050506120c2565b60405180821515815260200191505060405180910390f35b610e1761215d565b6040518082815260200191505060405180910390f35b6000806000837bffffffffffffffffffffffffffffffffffffffffffffffffffffffff19167bffffffffffffffffffffffffffffffffffffffffffffffffffffffff19168152602001908152602001600020600090610e8a613820565b906101000a900460ff169050919050565b6060600680610ea8613820565b600181600116156101000203166002900480601f01602080910402602001604051908101604052809291908181526020018280610ee3613820565b60018160011615610100020316600290048015610f4f5780601f10610f1d576101008083610f0f613820565b040283529160200191610f4f565b820191906000526020600020905b81610f34613820565b81529060010190602001808311610f2b57829003601f168201915b5050505050905090565b6000610f6482612171565b610fc2576040517f08c379a000000000000000000000000000000000000000000000000000000000815260040180806020018281038252602c815260200180613e25602c913960400191505060405180910390610fbf6137b2565b50505b60046000838152602001908152602001600020600090610fe0613820565b906101000a900473ffffffffffffffffffffffffffffffffffffffff169050919050565b600061100f82611305565b90508073ffffffffffffffffffffffffffffffffffffffff168373ffffffffffffffffffffffffffffffffffffffff16141561109f576040517f08c379a0000000000000000000000000000000000000000000000000000000008152600401808060200182810382526021815260200180613ed5602191396040019150506040518091039061109c6137b2565b50505b8073ffffffffffffffffffffffffffffffffffffffff166110be61218e565b73ffffffffffffffffffffffffffffffffffffffff1614806110ed57506110ec816110e761218e565b6120c2565b5b61114b576040517f08c379a0000000000000000000000000000000000000000000000000000000008152600401808060200182810382526038815260200180613d7860389139604001915050604051809103906111486137b2565b50505b611155838361219e565b505050565b60006111666002612267565b905090565b6000600f8383604051808383808284378083019250505092505050908152602001604051809103902061119c613820565b905092915050565b6111b56111af61218e565b8261227c565b611213576040517f08c379a0000000000000000000000000000000000000000000000000000000008152600401808060200182810382526031815260200180613f1c60319139604001915050604051809103906112106137b2565b50505b61121e838383612379565b505050565b600061127682600160008673ffffffffffffffffffffffffffffffffffffffff1673ffffffffffffffffffffffffffffffffffffffff1681526020019081526020016000206125ce90919063ffffffff16565b905092915050565b61129983838360405180602001604052806000815250611b43565b505050565b6000806112b58360026125e890919063ffffffff16565b50905080915050919050565b6000600d60008381526020019081526020016000206000906112e1613820565b906101000a900473ffffffffffffffffffffffffffffffffffffffff169050919050565b600061133582604051806060016040528060298152602001613dda6029913960026126149092919063ffffffff16565b9050919050565b600f8180516020810182018051848252602083016020850120818352809550505050505060009150905061136e613820565b81565b606060098061137e613820565b600181600116156101000203166002900480601f016020809104026020016040519081016040528092919081815260200182806113b9613820565b600181600116156101000203166002900480156114255780601f106113f35761010080836113e5613820565b040283529160200191611425565b820191906000526020600020905b8161140a613820565b8152906001019060200180831161140157829003601f168201915b5050505050905090565b60008073ffffffffffffffffffffffffffffffffffffffff168273ffffffffffffffffffffffffffffffffffffffff1614156114bf576040517f08c379a000000000000000000000000000000000000000000000000000000000815260040180806020018281038252602a815260200180613db0602a9139604001915050604051809103906114bc6137b2565b50505b611506600160008473ffffffffffffffffffffffffffffffffffffffff1673ffffffffffffffffffffffffffffffffffffffff168152602001908152602001600020612633565b9050919050565b6060600b60008373ffffffffffffffffffffffffffffffffffffffff1673ffffffffffffffffffffffffffffffffffffffff16815260200190815260200160002080611557613820565b8060200260200160405190810160405280929190818152602001828061157b613820565b80156115ad57602002820191906000526020600020905b8161159b613820565b81526020019060010190808311611592575b50505050509050919050565b60606007806115c6613820565b600181600116156101000203166002900480601f01602080910402602001604051908101604052809291908181526020018280611601613820565b6001816001161561010002031660029004801561166d5780601f1061163b57610100808361162d613820565b04028352916020019161166d565b820191906000526020600020905b81611652613820565b8152906001019060200180831161164957829003601f168201915b5050505050905090565b60006001600f848460405180838380828437808301925050509250505090815260200160405180910390206116aa613820565b141561170a576040517f08c379a0000000000000000000000000000000000000000000000000000000008152600401808060200182810382526026815260200180613ef660269139604001915050604051809103906117076137b2565b50505b611714600a612648565b6000611720600a61266e565b905080600f858560405180838380828437808301925050509250505090815260200160405180910390208190611754613883565b505050600c819080600181611767613820565b018082611772613883565b5050809150506001900390600052602060002001600090919091909150611797613883565b5050600b60005a6117a66138e8565b73ffffffffffffffffffffffffffffffffffffffff1673ffffffffffffffffffffffffffffffffffffffff1681526020019081526020016000208190806001816117ee613820565b0180826117f9613883565b505080915050600190039060005260206000200160009091909190915061181e613883565b50505a6118296138e8565b600d600083815260200190815260200160002060006101000a8161184b613820565b8173ffffffffffffffffffffffffffffffffffffffff021916908373ffffffffffffffffffffffffffffffffffffffff16021790611887613883565b50505061189c5a6118966138e8565b82612683565b6118ea8185858080601f016020809104026020016040519081016040528093929190818152602001838380828437600081840152601f19601f82011690508083019250505050505050612889565b8091505092915050565b6118fc61218e565b73ffffffffffffffffffffffffffffffffffffffff168273ffffffffffffffffffffffffffffffffffffffff1614156119a6576040517f08c379a00000000000000000000000000000000000000000000000000000000081526004018080602001828103825260198152602001807f4552433732313a20617070726f766520746f2063616c6c657200000000000000815250602001915050604051809103906119a36137b2565b50505b80600560006119b361218e565b73ffffffffffffffffffffffffffffffffffffffff1673ffffffffffffffffffffffffffffffffffffffff16815260200190815260200160002060008473ffffffffffffffffffffffffffffffffffffffff1673ffffffffffffffffffffffffffffffffffffffff16815260200190815260200160002060006101000a81611a39613820565b8160ff02191690831515021790611a4e613883565b5050508173ffffffffffffffffffffffffffffffffffffffff16611a7061218e565b73ffffffffffffffffffffffffffffffffffffffff167f17307eab39ab6107e8899845ad3d59bd9653f200f220920489ca2b5937696c318360405180821515815260200191505060405180910390a35050565b6060600e600083815260200190815260200160002080611ae1613820565b80602002602001604051908101604052809291908181526020018280611b05613820565b8015611b3757602002820191906000526020600020905b81611b25613820565b81526020019060010190808311611b1c575b50505050509050919050565b611b54611b4e61218e565b8361227c565b611bb2576040517f08c379a0000000000000000000000000000000000000000000000000000000008152600401808060200182810382526031815260200180613f1c6031913960400191505060405180910390611baf6137b2565b50505b611bbe8484848461291c565b50505050565b60006001600f85856040518083838082843780830192505050925050509081526020016040518091039020611bf7613820565b1415611c57576040517f08c379a0000000000000000000000000000000000000000000000000000000008152600401808060200182810382526026815260200180613caa6026913960400191505060405180910390611c546137b2565b50505b611c61600a612648565b6000611c6d600a61266e565b905080600f868660405180838380828437808301925050509250505090815260200160405180910390208190611ca1613883565b5050505a611cad6138e8565b600d600083815260200190815260200160002060006101000a81611ccf613820565b8173ffffffffffffffffffffffffffffffffffffffff021916908373ffffffffffffffffffffffffffffffffffffffff16021790611d0b613883565b505050600e6000848152602001908152602001600020819080600181611d2f613820565b018082611d3a613883565b5050809150506001900390600052602060002001600090919091909150611d5f613883565b5050611d735a611d6d6138e8565b82612683565b611dc18186868080601f016020809104026020016040519081016040528093929190818152602001838380828437600081840152601f19601f82011690508083019250505050505050612889565b809150509392505050565b6060611dd782612171565b611e35576040517f08c379a000000000000000000000000000000000000000000000000000000000815260040180806020018281038252602f815260200180613ea6602f913960400191505060405180910390611e326137b2565b50505b60006008600084815260200190815260200160002080611e53613820565b600181600116156101000203166002900480601f01602080910402602001604051908101604052809291908181526020018280611e8e613820565b60018160011615610100020316600290048015611efa5780601f10611ec8576101008083611eba613820565b040283529160200191611efa565b820191906000526020600020905b81611edf613820565b81529060010190602001808311611ed657829003601f168201915b505050505090506000611f0b611371565b9050600081511415611f215781925050506120bd565b600082511115611ff25780826040516020018083805190602001908083835b60208310611f635780518252602082019150602081019050602083039250611f40565b6001836020036101000a03801982511681845116808217855250505050505090500182805190602001908083835b60208310611fb45780518252602082019150602081019050602083039250611f91565b6001836020036101000a03801982511681845116808217855250505050505090500192505050604051602081830303815290604052925050506120bd565b80611ffc85612997565b6040516020018083805190602001908083835b60208310612032578051825260208201915060208101905060208303925061200f565b6001836020036101000a03801982511681845116808217855250505050505090500182805190602001908083835b602083106120835780518252602082019150602081019050602083039250612060565b6001836020036101000a03801982511681845116808217855250505050505090500192505050604051602081830303815290604052925050505b919050565b6000600560008473ffffffffffffffffffffffffffffffffffffffff1673ffffffffffffffffffffffffffffffffffffffff16815260200190815260200160002060008373ffffffffffffffffffffffffffffffffffffffff1673ffffffffffffffffffffffffffffffffffffffff16815260200190815260200160002060009061214b613820565b906101000a900460ff16905092915050565b6000600c8061216a613820565b9050905090565b6000612187826002612ae790919063ffffffff16565b9050919050565b60005a6121996138e8565b905090565b816004600083815260200190815260200160002060006101000a816121c1613820565b8173ffffffffffffffffffffffffffffffffffffffff021916908373ffffffffffffffffffffffffffffffffffffffff160217906121fd613883565b505050808273ffffffffffffffffffffffffffffffffffffffff1661222183611305565b73ffffffffffffffffffffffffffffffffffffffff167f8c5be1e5ebec7d5bd14f71427d1e84f3dd0314c0f7b2291e5b200ac8c7c3b92560405160405180910390a45050565b600061227582600001612b01565b9050919050565b600061228782612171565b6122e5576040517f08c379a000000000000000000000000000000000000000000000000000000000815260040180806020018281038252602c815260200180613d4c602c9139604001915050604051809103906122e26137b2565b50505b60006122f083611305565b90508073ffffffffffffffffffffffffffffffffffffffff168473ffffffffffffffffffffffffffffffffffffffff16148061235f57508373ffffffffffffffffffffffffffffffffffffffff1661234784610f59565b73ffffffffffffffffffffffffffffffffffffffff16145b80612370575061236f81856120c2565b5b91505092915050565b8273ffffffffffffffffffffffffffffffffffffffff1661239982611305565b73ffffffffffffffffffffffffffffffffffffffff161461240e576040517f08c379a0000000000000000000000000000000000000000000000000000000008152600401808060200182810382526029815260200180613e7d602991396040019150506040518091039061240b6137b2565b50505b600073ffffffffffffffffffffffffffffffffffffffff168273ffffffffffffffffffffffffffffffffffffffff16141561249d576040517f08c379a0000000000000000000000000000000000000000000000000000000008152600401808060200182810382526024815260200180613d02602491396040019150506040518091039061249a6137b2565b50505b6124a8838383612b19565b6124b360008261219e565b61250481600160008673ffffffffffffffffffffffffffffffffffffffff1673ffffffffffffffffffffffffffffffffffffffff168152602001908152602001600020612b1e90919063ffffffff16565b5061255681600160008573ffffffffffffffffffffffffffffffffffffffff1673ffffffffffffffffffffffffffffffffffffffff168152602001908152602001600020612b3890919063ffffffff16565b5061256d81836002612b529092919063ffffffff16565b50808273ffffffffffffffffffffffffffffffffffffffff168473ffffffffffffffffffffffffffffffffffffffff167fddf252ad1be2c89b69c2b068fc378daa952ba7f163c4a11628f55a4df523b3ef60405160405180910390a4505050565b60006125dd8360000183612b87565b60001c905092915050565b6000806000806125fb8660000186612c28565b915091508160001c8160001c9350935050509250929050565b6000612627846000018460001b84612ce6565b60001c90509392505050565b600061264182600001612dfa565b9050919050565b6001816000016000828261265a613820565b019250508190612668613883565b50505050565b60008160000161267c613820565b9050919050565b600073ffffffffffffffffffffffffffffffffffffffff168273ffffffffffffffffffffffffffffffffffffffff16141561272f576040517f08c379a00000000000000000000000000000000000000000000000000000000081526004018080602001828103825260208152602001807f4552433732313a206d696e7420746f20746865207a65726f20616464726573738152506020019150506040518091039061272c6137b2565b50505b61273881612171565b156127b4576040517f08c379a000000000000000000000000000000000000000000000000000000000815260040180806020018281038252601c8152602001807f4552433732313a20746f6b656e20616c7265616479206d696e74656400000000815250602001915050604051809103906127b16137b2565b50505b6127c060008383612b19565b61281181600160008573ffffffffffffffffffffffffffffffffffffffff1673ffffffffffffffffffffffffffffffffffffffff168152602001908152602001600020612b3890919063ffffffff16565b5061282881836002612b529092919063ffffffff16565b50808273ffffffffffffffffffffffffffffffffffffffff16600073ffffffffffffffffffffffffffffffffffffffff167fddf252ad1be2c89b69c2b068fc378daa952ba7f163c4a11628f55a4df523b3ef60405160405180910390a45050565b61289282612171565b6128f0576040517f08c379a000000000000000000000000000000000000000000000000000000000815260040180806020018281038252602c815260200180613e51602c9139604001915050604051809103906128ed6137b2565b50505b80600860008481526020019081526020016000209080519060200190612917929190613945565b505050565b612927848484612379565b61293384848484612e12565b612991576040517f08c379a0000000000000000000000000000000000000000000000000000000008152600401808060200182810382526032815260200180613cd0603291396040019150506040518091039061298e6137b2565b50505b50505050565b606060008214156129df576040518060400160405280600181526020017f30000000000000000000000000000000000000000000000000000000000000008152509050612ae2565b600082905060005b60008214612a09578080600101915050600a8281612a0157fe5b0491506129e7565b60008167ffffffffffffffff81118015612a2b57600080612a286137b2565b50505b506040519080825280601f01601f191660200182016040528015612a5e5781602001600182028036833780820191505090505b50905060006001830390508593505b60008414612ada57600a8481612a7f57fe5b0660300160f81b82828060019003935081518110612a9957fe5b60200101907effffffffffffffffffffffffffffffffffffffffffffffffffffffffffffff1916908160001a905350600a8481612ad257fe5b049350612a6d565b819450505050505b919050565b6000612af9836000018360001b613034565b905092915050565b60008160000180612b10613820565b90509050919050565b505050565b6000612b30836000018360001b61305e565b905092915050565b6000612b4a836000018360001b61319d565b905092915050565b6000612b7e846000018460001b8473ffffffffffffffffffffffffffffffffffffffff1660001b613236565b90509392505050565b6000818360000180612b97613820565b905011612bf8576040517f08c379a0000000000000000000000000000000000000000000000000000000008152600401808060200182810382526022815260200180613c886022913960400191505060405180910390612bf56137b2565b50505b826000018281612c06613820565b8110612c0e57fe5b90600052602060002001612c20613820565b905092915050565b600080828460000180612c39613820565b905011612c9a576040517f08c379a0000000000000000000000000000000000000000000000000000000008152600401808060200182810382526022815260200180613e036022913960400191505060405180910390612c976137b2565b50505b6000846000018481612caa613820565b8110612cb257fe5b9060005260206000209060020201905080600001612cce613820565b81600101612cda613820565b92509250509250929050565b600080846001016000858152602001908152602001600020612d06613820565b905060008114158390612dbd576040517f08c379a00000000000000000000000000000000000000000000000000000000081526004018080602001828103825283818151815260200191508051906020019080838360005b83811015612d79578082015181840152602081019050612d5e565b50505050905090810190601f168015612da65780820380516001836020036101000a031916815260200191505b509250505060405180910390612dba6137b2565b50505b50846000016001820381612dcf613820565b8110612dd757fe5b9060005260206000209060020201600101612df0613820565b9150509392505050565b60008160000180612e09613820565b90509050919050565b6000612e338473ffffffffffffffffffffffffffffffffffffffff1661335b565b612e40576001905061302c565b6000612faa63150b7a0260e01b612e5561218e565b888787604051602401808573ffffffffffffffffffffffffffffffffffffffff1681526020018473ffffffffffffffffffffffffffffffffffffffff16815260200183815260200180602001828103825283818151815260200191508051906020019080838360005b83811015612ed9578082015181840152602081019050612ebe565b50505050905090810190601f168015612f065780820380516001836020036101000a031916815260200191505b5095505050505050604051602081830303815290604052907bffffffffffffffffffffffffffffffffffffffffffffffffffffffff19166020820180517bffffffffffffffffffffffffffffffffffffffffffffffffffffffff8381831617835250505050604051806060016040528060328152602001613cd0603291398773ffffffffffffffffffffffffffffffffffffffff166133759092919063ffffffff16565b90506000818060200190516020811015612fcc57600080612fc96137b2565b50505b8101908080519060200190929190505050905063150b7a0260e01b7bffffffffffffffffffffffffffffffffffffffffffffffffffffffff1916817bffffffffffffffffffffffffffffffffffffffffffffffffffffffff191614925050505b949350505050565b600080836001016000848152602001908152602001600020613054613820565b1415905092915050565b60008083600101600084815260200190815260200160002061307e613820565b9050600081146131915760006001820390506000600186600001806130a1613820565b905003905060008660000182816130b6613820565b81106130be57fe5b906000526020600020016130d0613820565b9050808760000184816130e1613820565b81106130e957fe5b9060005260206000200181906130fd613883565b505050600183018760010160008381526020019081526020016000208190613123613883565b5050508660000180613133613820565b8061313a57fe5b60019003818190600052602060002001600090613155613883565b505090613160613883565b5050866001016000878152602001908152602001600020600090613182613883565b50506001945050505050613197565b60009150505b92915050565b60006131a9838361338d565b61322b57826000018290806001816131bf613820565b0180826131ca613883565b50508091505060019003906000526020600020016000909190919091506131ef613883565b505082600001806131fe613820565b9050836001016000848152602001908152602001600020819061321f613883565b50505060019050613230565b600090505b92915050565b600080846001016000858152602001908152602001600020613256613820565b9050600081141561331657846000016040518060400160405280868152602001858152509080600181613287613820565b018082613292613883565b5050809150506001900390600052602060002090600202016000909190919091506000820151816000016132c4613883565b50506020820151816001016132d7613883565b5050505084600001806132e8613820565b90508560010160008681526020019081526020016000208190613309613883565b5050506001915050613354565b82856000016001830381613328613820565b811061333057fe5b9060005260206000209060020201600101819061334b613883565b50505060009150505b9392505050565b600080826133676139fe565b905060008111915050919050565b606061338484846000856133b7565b90509392505050565b6000808360010160008481526020019081526020016000206133ad613820565b1415905092915050565b60608261341e5a63996d79a5598160e01b8152602081600483336000905af158600e01573d6000803e3d6000fd5b3d6001141558600a015760016000f35b8051925060005b6040811015613416576000818301526020810190506133fc565b5050506135e1565b101561347e576040517f08c379a0000000000000000000000000000000000000000000000000000000008152600401808060200182810382526026815260200180613d26602691396040019150506040518091039061347b6137b2565b50505b6134878561335b565b613502576040517f08c379a000000000000000000000000000000000000000000000000000000000815260040180806020018281038252601d8152602001807f416464726573733a2063616c6c20746f206e6f6e2d636f6e7472616374000000815250602001915050604051809103906134ff6137b2565b50505b6000808673ffffffffffffffffffffffffffffffffffffffff1685876040518082805190602001908083835b60208310613551578051825260208201915060208101905060208303925061352e565b6001836020036101000a03801982511681845116808217855250505050505090500191505060006040518083038185875a61358a613a61565b505050505050925050503d80600081146135c0576040519150601f19603f3d011682016040523d82523d6000602084013e6135c5565b606091505b50915091506135d58282866136ce565b92505050949350505050565b600073420000000000000000000000000000000000000673ffffffffffffffffffffffffffffffffffffffff166370a08231836040518263ffffffff1660e01b8152600401808273ffffffffffffffffffffffffffffffffffffffff16815260200191505060206040518083038186806136596139fe565b15801561366e5760008061366b6137b2565b50505b505a613678613b61565b5050505050158015613697573d6000803e3d60006136946137b2565b50505b505050506040513d60208110156136b6576000806136b36137b2565b50505b81019080805190602001909291905050509050919050565b606083156136de578290506137ab565b6000835111156136ff57825180846020016136f76137b2565b5050506137aa565b816040517f08c379a00000000000000000000000000000000000000000000000000000000081526004018080602001828103825283818151815260200191508051906020019080838360005b8381101561376657808201518184015260208101905061374b565b50505050905090810190601f1680156137935780820380516001836020036101000a031916815260200191505b5092505050604051809103906137a76137b2565b50505b5b9392505050565b632a2a7adb598160e01b8152600481016020815285602082015260005b868110156137ed5780860151816040840101526020810190506137cf565b506020828760640184336000905af158600e01573d6000803e3d6000fd5b3d6001141558600a015760016000f35b505050565b6303daa959598160e01b8152836004820152602081602483336000905af158600e01573d6000803e3d6000fd5b3d6001141558600a015760016000f35b8051935060005b604081101561387e57600081830152602081019050613864565b505050565b6322bd64c0598160e01b8152836004820152846024820152600081604483336000905af158600e01573d6000803e3d6000fd5b3d6001141558600a015760016000f35b60005b60408110156138e3576000818301526020810190506138c9565b505050565b6373509064598160e01b8152602081600483336000905af158600e01573d6000803e3d6000fd5b3d6001141558600a015760016000f35b8051935060005b604081101561394057600081830152602081019050613926565b505050565b828061394f613820565b600181600116156101000203166002900490600052602060002090601f01602090048101928261398b57600085613984613883565b50506139ed565b82601f106139ad57805160ff191683800117856139a6613883565b50506139ed565b828001600101856139bc613883565b505082156139ed579182015b828111156139ec578251826139db613883565b5050916020019190600101906139c8565b5b5090506139fa9190613c61565b5090565b638435035b598160e01b8152836004820152602081602483336000905af158600e01573d6000803e3d6000fd5b3d6001141558600a015760016000f35b8051935060005b6040811015613a5c57600081830152602081019050613a42565b505050565b6385979f76598160e01b8152613aa0565b600081905081831115613a83578290505b92915050565b600081905081831015613a9a578290505b92915050565b836004820152846024820152606060448201528760648201526084810160005b89811015613adb578089015181830152602081019050613ac0565b506060828a60a40184336000905af158600e01573d6000803e3d6000fd5b3d6001141558600a015760016000f35b815160408301513d6000853e8c8c82606087013350600060045af15059613b308e3d613a89565b8d01613b3c8187613a72565b5b82811015613b545760008152602081019050613b3d565b50839e5050505050505050565b638540661f598160e01b8152613ba0565b600081905081831115613b83578290505b92915050565b600081905081831015613b9a578290505b92915050565b836004820152846024820152606060448201528660648201526084810160005b88811015613bdb578088015181830152602081019050613bc0565b506060828960a40184336000905af158600e01573d6000803e3d6000fd5b3d6001141558600a015760016000f35b815160408301513d6000853e8b8b82606087013350600060045af15059613c308d3d613b89565b8c01613c3c8187613b72565b5b82811015613c545760008152602081019050613c3d565b50839d5050505050505050565b5b80821115613c8357600081600090613c78613883565b505050600101613c62565b509056fe456e756d657261626c655365743a20696e646578206f7574206f6620626f756e647343616e206e6f7420757365207468652073616d65206861736820284e6f646520636865636b294552433732313a207472616e7366657220746f206e6f6e20455243373231526563656976657220696d706c656d656e7465724552433732313a207472616e7366657220746f20746865207a65726f2061646472657373416464726573733a20696e73756666696369656e742062616c616e636520666f722063616c6c4552433732313a206f70657261746f7220717565727920666f72206e6f6e6578697374656e7420746f6b656e4552433732313a20617070726f76652063616c6c6572206973206e6f74206f776e6572206e6f7220617070726f76656420666f7220616c6c4552433732313a2062616c616e636520717565727920666f7220746865207a65726f20616464726573734552433732313a206f776e657220717565727920666f72206e6f6e6578697374656e7420746f6b656e456e756d657261626c654d61703a20696e646578206f7574206f6620626f756e64734552433732313a20617070726f76656420717565727920666f72206e6f6e6578697374656e7420746f6b656e4552433732314d657461646174613a2055524920736574206f66206e6f6e6578697374656e7420746f6b656e4552433732313a207472616e73666572206f6620746f6b656e2074686174206973206e6f74206f776e4552433732314d657461646174613a2055524920717565727920666f72206e6f6e6578697374656e7420746f6b656e4552433732313a20617070726f76616c20746f2063757272656e74206f776e657243616e206e6f7420757365207468652073616d6520686173682028526f6f7420636865636b294552433732313a207472616e736665722063616c6c6572206973206e6f74206f776e6572206e6f7220617070726f766564",
  "linkReferences": {},
  "deployedLinkReferences": {}
}