{
  "_format": "hh-sol-artifact-1",
  "contractName": "Architect",
  "sourceName": "contracts/Architect.sol",
  "abi": [
    {
      "inputs": [
        {
          "internalType": "string",
          "name": "networkName",
          "type": "string"
        }
      ],
      "stateMutability": "nonpayable",
      "type": "constructor"
    },
    {
      "anonymous": false,
      "inputs": [
        {
          "indexed": true,
          "internalType": "address",
          "name": "owner",
          "type": "address"
        },
        {
          "indexed": true,
          "internalType": "address",
          "name": "approved",
          "type": "address"
        },
        {
          "indexed": true,
          "internalType": "uint256",
          "name": "tokenId",
          "type": "uint256"
        }
      ],
      "name": "Approval",
      "type": "event"
    },
    {
      "anonymous": false,
      "inputs": [
        {
          "indexed": true,
          "internalType": "address",
          "name": "owner",
          "type": "address"
        },
        {
          "indexed": true,
          "internalType": "address",
          "name": "operator",
          "type": "address"
        },
        {
          "indexed": false,
          "internalType": "bool",
          "name": "approved",
          "type": "bool"
        }
      ],
      "name": "ApprovalForAll",
      "type": "event"
    },
    {
      "anonymous": false,
      "inputs": [
        {
          "indexed": true,
          "internalType": "address",
          "name": "from",
          "type": "address"
        },
        {
          "indexed": true,
          "internalType": "address",
          "name": "to",
          "type": "address"
        },
        {
          "indexed": true,
          "internalType": "uint256",
          "name": "tokenId",
          "type": "uint256"
        }
      ],
      "name": "Transfer",
      "type": "event"
    },
    {
      "inputs": [
        {
          "internalType": "address",
          "name": "to",
          "type": "address"
        },
        {
          "internalType": "uint256",
          "name": "tokenId",
          "type": "uint256"
        }
      ],
      "name": "approve",
      "outputs": [],
      "stateMutability": "nonpayable",
      "type": "function"
    },
    {
      "inputs": [
        {
          "internalType": "address",
          "name": "owner",
          "type": "address"
        }
      ],
      "name": "balanceOf",
      "outputs": [
        {
          "internalType": "uint256",
          "name": "",
          "type": "uint256"
        }
      ],
      "stateMutability": "view",
      "type": "function"
    },
    {
      "inputs": [],
      "name": "baseURI",
      "outputs": [
        {
          "internalType": "string",
          "name": "",
          "type": "string"
        }
      ],
      "stateMutability": "view",
      "type": "function"
    },
    {
      "inputs": [
        {
          "internalType": "uint256",
          "name": "tokenId",
          "type": "uint256"
        }
      ],
      "name": "getApproved",
      "outputs": [
        {
          "internalType": "address",
          "name": "",
          "type": "address"
        }
      ],
      "stateMutability": "view",
      "type": "function"
    },
    {
      "inputs": [
        {
          "internalType": "address",
          "name": "owner",
          "type": "address"
        },
        {
          "internalType": "address",
          "name": "operator",
          "type": "address"
        }
      ],
      "name": "isApprovedForAll",
      "outputs": [
        {
          "internalType": "bool",
          "name": "",
          "type": "bool"
        }
      ],
      "stateMutability": "view",
      "type": "function"
    },
    {
      "inputs": [],
      "name": "mintRoot",
      "outputs": [],
      "stateMutability": "nonpayable",
      "type": "function"
    },
    {
      "inputs": [],
      "name": "name",
      "outputs": [
        {
          "internalType": "string",
          "name": "",
          "type": "string"
        }
      ],
      "stateMutability": "view",
      "type": "function"
    },
    {
      "inputs": [],
      "name": "network",
      "outputs": [
        {
          "internalType": "string",
          "name": "",
          "type": "string"
        }
      ],
      "stateMutability": "view",
      "type": "function"
    },
    {
      "inputs": [],
      "name": "owner",
      "outputs": [
        {
          "internalType": "address",
          "name": "",
          "type": "address"
        }
      ],
      "stateMutability": "view",
      "type": "function"
    },
    {
      "inputs": [
        {
          "internalType": "uint256",
          "name": "tokenId",
          "type": "uint256"
        }
      ],
      "name": "ownerOf",
      "outputs": [
        {
          "internalType": "address",
          "name": "",
          "type": "address"
        }
      ],
      "stateMutability": "view",
      "type": "function"
    },
    {
      "inputs": [
        {
          "internalType": "address",
          "name": "from",
          "type": "address"
        },
        {
          "internalType": "address",
          "name": "to",
          "type": "address"
        },
        {
          "internalType": "uint256",
          "name": "tokenId",
          "type": "uint256"
        }
      ],
      "name": "safeTransferFrom",
      "outputs": [],
      "stateMutability": "nonpayable",
      "type": "function"
    },
    {
      "inputs": [
        {
          "internalType": "address",
          "name": "from",
          "type": "address"
        },
        {
          "internalType": "address",
          "name": "to",
          "type": "address"
        },
        {
          "internalType": "uint256",
          "name": "tokenId",
          "type": "uint256"
        },
        {
          "internalType": "bytes",
          "name": "_data",
          "type": "bytes"
        }
      ],
      "name": "safeTransferFrom",
      "outputs": [],
      "stateMutability": "nonpayable",
      "type": "function"
    },
    {
      "inputs": [
        {
          "internalType": "address",
          "name": "operator",
          "type": "address"
        },
        {
          "internalType": "bool",
          "name": "approved",
          "type": "bool"
        }
      ],
      "name": "setApprovalForAll",
      "outputs": [],
      "stateMutability": "nonpayable",
      "type": "function"
    },
    {
      "inputs": [
        {
          "internalType": "bytes4",
          "name": "interfaceId",
          "type": "bytes4"
        }
      ],
      "name": "supportsInterface",
      "outputs": [
        {
          "internalType": "bool",
          "name": "",
          "type": "bool"
        }
      ],
      "stateMutability": "view",
      "type": "function"
    },
    {
      "inputs": [],
      "name": "symbol",
      "outputs": [
        {
          "internalType": "string",
          "name": "",
          "type": "string"
        }
      ],
      "stateMutability": "view",
      "type": "function"
    },
    {
      "inputs": [
        {
          "internalType": "uint256",
          "name": "index",
          "type": "uint256"
        }
      ],
      "name": "tokenByIndex",
      "outputs": [
        {
          "internalType": "uint256",
          "name": "",
          "type": "uint256"
        }
      ],
      "stateMutability": "view",
      "type": "function"
    },
    {
      "inputs": [
        {
          "internalType": "address",
          "name": "owner",
          "type": "address"
        },
        {
          "internalType": "uint256",
          "name": "index",
          "type": "uint256"
        }
      ],
      "name": "tokenOfOwnerByIndex",
      "outputs": [
        {
          "internalType": "uint256",
          "name": "",
          "type": "uint256"
        }
      ],
      "stateMutability": "view",
      "type": "function"
    },
    {
      "inputs": [
        {
          "internalType": "uint256",
          "name": "tokenId",
          "type": "uint256"
        }
      ],
      "name": "tokenURI",
      "outputs": [
        {
          "internalType": "string",
          "name": "",
          "type": "string"
        }
      ],
      "stateMutability": "view",
      "type": "function"
    },
    {
      "inputs": [],
      "name": "totalSupply",
      "outputs": [
        {
          "internalType": "uint256",
          "name": "",
          "type": "uint256"
        }
      ],
      "stateMutability": "view",
      "type": "function"
    },
    {
      "inputs": [
        {
          "internalType": "address",
          "name": "from",
          "type": "address"
        },
        {
          "internalType": "address",
          "name": "to",
          "type": "address"
        },
        {
          "internalType": "uint256",
          "name": "tokenId",
          "type": "uint256"
        }
      ],
      "name": "transferFrom",
      "outputs": [],
      "stateMutability": "nonpayable",
      "type": "function"
    }
  ],
  "bytecode": "0x60806040523480156200001c5760008062000019620003d6565b50505b50604051620037c8380380620037c8833981810160405260208110156200004d576000806200004a620003d6565b50505b8101908080516040519392919084640100000000821115620000795760008062000076620003d6565b50505b838201915060208201858111156200009b5760008062000098620003d6565b50505b8251866001820283011164010000000082111715620000c457600080620000c1620003d6565b50505b8083526020830192505050908051906020019080838360005b83811015620000fa578082015181840152602081019050620000dd565b50505050905090810190601f168015620001285780820380516001836020036101000a031916815260200191505b506040525050506040518060400160405280600981526020017f41726368697465637400000000000000000000000000000000000000000000008152506040518060400160405280600481526020017f4152434800000000000000000000000000000000000000000000000000000000815250620001b36301ffc9a760e01b620002ae60201b60201c565b8160069080519060200190620001cb92919062000446565b508060079080519060200190620001e492919062000446565b50620001fd6380ac58cd60e01b620002ae60201b60201c565b62000215635b5e139f60e01b620002ae60201b60201c565b6200022d63780e9d6360e01b620002ae60201b60201c565b50505a6200023a62000512565b600b60006101000a816200024d62000571565b8173ffffffffffffffffffffffffffffffffffffffff021916908373ffffffffffffffffffffffffffffffffffffffff160217906200028b620005d6565b50505080600a9080519060200190620002a692919062000446565b505062000667565b63ffffffff60e01b817bffffffffffffffffffffffffffffffffffffffffffffffffffffffff1916141562000356576040517f08c379a000000000000000000000000000000000000000000000000000000000815260040180806020018281038252601c8152602001807f4552433136353a20696e76616c696420696e74657266616365206964000000008152506020019150506040518091039062000353620003d6565b50505b6001600080837bffffffffffffffffffffffffffffffffffffffffffffffffffffffff19167bffffffffffffffffffffffffffffffffffffffffffffffffffffffff1916815260200190815260200160002060006101000a81620003b962000571565b8160ff02191690831515021790620003d0620005d6565b50505050565b632a2a7adb598160e01b8152600481016020815285602082015260005b8681101562000413578086015181604084010152602081019050620003f3565b506020828760640184336000905af158600e01573d6000803e3d6000fd5b3d6001141558600a015760016000f35b505050565b82806200045262000571565b600181600116156101000203166002900490600052602060002090601f01602090048101928262000492576000856200048a620005d6565b5050620004ff565b82601f10620004b857805160ff19168380011785620004b0620005d6565b5050620004ff565b82800160010185620004c9620005d6565b50508215620004ff579182015b82811115620004fe57825182620004ec620005d6565b505091602001919060010190620004d6565b5b5090506200050e91906200063d565b5090565b6373509064598160e01b8152602081600483336000905af158600e01573d6000803e3d6000fd5b3d6001141558600a015760016000f35b8051935060005b60408110156200056c5760008183015260208101905062000550565b505050565b6303daa959598160e01b8152836004820152602081602483336000905af158600e01573d6000803e3d6000fd5b3d6001141558600a015760016000f35b8051935060005b6040811015620005d157600081830152602081019050620005b5565b505050565b6322bd64c0598160e01b8152836004820152846024820152600081604483336000905af158600e01573d6000803e3d6000fd5b3d6001141558600a015760016000f35b60005b604081101562000638576000818301526020810190506200061c565b505050565b5b80821115620006635760008160009062000657620005d6565b5050506001016200063e565b5090565b61315180620006776000396000f3fe608060405234801561001957600080610016612b0d565b50505b50600436106101355760003560e01c80636739afca116100b6578063a22cb4651161007a578063a22cb4651461072b578063b88d4fde14610784578063c87b56dd146108ad578063d028c20f1461095d578063e985e9c51461096757610135565b80636739afca1461050d5780636c0360eb1461059057806370a08231146106135780638da5cb5b1461067457806395d89b41146106a857610135565b806323b872dd116100fd57806323b872dd146103085780632f745c591461037f57806342842e0e146103ea5780634f6ccce7146104615780636352211e146104ac57610135565b806301ffc9a71461014357806306fdde03146101af578063081812fc14610232578063095ea7b31461029357806318160ddd146102ea575b600080610140612b0d565b50505b610197600480360360208110156101625760008061015f612b0d565b50505b8101908080357bffffffffffffffffffffffffffffffffffffffffffffffffffffffff191690602001909291905050506109ea565b60405180821515815260200191505060405180910390f35b6101b7610a58565b6040518080602001828103825283818151815260200191508051906020019080838360005b838110156101f75780820151818401526020810190506101dc565b50505050905090810190601f1680156102245780820380516001836020036101000a031916815260200191505b509250505060405180910390f35b610267600480360360208110156102515760008061024e612b0d565b50505b8101908080359060200190929190505050610b16565b604051808273ffffffffffffffffffffffffffffffffffffffff16815260200191505060405180910390f35b6102e8600480360360408110156102b2576000806102af612b0d565b50505b81019080803573ffffffffffffffffffffffffffffffffffffffff16906020019092919080359060200190929190505050610bc1565b005b6102f2610d17565b6040518082815260200191505060405180910390f35b61037d6004803603606081101561032757600080610324612b0d565b50505b81019080803573ffffffffffffffffffffffffffffffffffffffff169060200190929190803573ffffffffffffffffffffffffffffffffffffffff16906020019092919080359060200190929190505050610d28565b005b6103d46004803603604081101561039e5760008061039b612b0d565b50505b81019080803573ffffffffffffffffffffffffffffffffffffffff16906020019092919080359060200190929190505050610da7565b6040518082815260200191505060405180910390f35b61045f6004803603606081101561040957600080610406612b0d565b50505b81019080803573ffffffffffffffffffffffffffffffffffffffff169060200190929190803573ffffffffffffffffffffffffffffffffffffffff16906020019092919080359060200190929190505050610e02565b005b610496600480360360208110156104805760008061047d612b0d565b50505b8101908080359060200190929190505050610e22565b6040518082815260200191505060405180910390f35b6104e1600480360360208110156104cb576000806104c8612b0d565b50505b8101908080359060200190929190505050610e45565b604051808273ffffffffffffffffffffffffffffffffffffffff16815260200191505060405180910390f35b610515610e7c565b6040518080602001828103825283818151815260200191508051906020019080838360005b8381101561055557808201518184015260208101905061053a565b50505050905090810190601f1680156105825780820380516001836020036101000a031916815260200191505b509250505060405180910390f35b610598610f36565b6040518080602001828103825283818151815260200191508051906020019080838360005b838110156105d85780820151818401526020810190506105bd565b50505050905090810190601f1680156106055780820380516001836020036101000a031916815260200191505b509250505060405180910390f35b61065e600480360360208110156106325760008061062f612b0d565b50505b81019080803573ffffffffffffffffffffffffffffffffffffffff169060200190929190505050610ff4565b6040518082815260200191505060405180910390f35b61067c6110d2565b604051808273ffffffffffffffffffffffffffffffffffffffff16815260200191505060405180910390f35b6106b06110ff565b6040518080602001828103825283818151815260200191508051906020019080838360005b838110156106f05780820151818401526020810190506106d5565b50505050905090810190601f16801561071d5780820380516001836020036101000a031916815260200191505b509250505060405180910390f35b6107826004803603604081101561074a57600080610747612b0d565b50505b81019080803573ffffffffffffffffffffffffffffffffffffffff1690602001909291908035151590602001909291905050506111bd565b005b6108ab600480360360808110156107a3576000806107a0612b0d565b50505b81019080803573ffffffffffffffffffffffffffffffffffffffff169060200190929190803573ffffffffffffffffffffffffffffffffffffffff169060200190929190803590602001909291908035906020019064010000000081111561081357600080610810612b0d565b50505b82018360208201111561082e5760008061082b612b0d565b50505b8035906020019184600183028401116401000000008311171561085957600080610856612b0d565b50505b91908080601f016020809104026020016040519081016040528093929190818152602001838380828437600081840152601f19601f82011690508083019250505050505050919291929050505061138c565b005b6108e2600480360360208110156108cc576000806108c9612b0d565b50505b810190808035906020019092919050505061140d565b6040518080602001828103825283818151815260200191508051906020019080838360005b83811015610922578082015181840152602081019050610907565b50505050905090810190601f16801561094f5780820380516001836020036101000a031916815260200191505b509250505060405180910390f35b610965611703565b005b6109d26004803603604081101561098657600080610983612b0d565b50505b81019080803573ffffffffffffffffffffffffffffffffffffffff169060200190929190803573ffffffffffffffffffffffffffffffffffffffff169060200190929190505050611705565b60405180821515815260200191505060405180910390f35b6000806000837bffffffffffffffffffffffffffffffffffffffffffffffffffffffff19167bffffffffffffffffffffffffffffffffffffffffffffffffffffffff19168152602001908152602001600020600090610a47612b7b565b906101000a900460ff169050919050565b6060600680610a65612b7b565b600181600116156101000203166002900480601f01602080910402602001604051908101604052809291908181526020018280610aa0612b7b565b60018160011615610100020316600290048015610b0c5780601f10610ada576101008083610acc612b7b565b040283529160200191610b0c565b820191906000526020600020905b81610af1612b7b565b81529060010190602001808311610ae857829003601f168201915b5050505050905090565b6000610b21826117a0565b610b7f576040517f08c379a000000000000000000000000000000000000000000000000000000000815260040180806020018281038252602c81526020018061307b602c913960400191505060405180910390610b7c612b0d565b50505b60046000838152602001908152602001600020600090610b9d612b7b565b906101000a900473ffffffffffffffffffffffffffffffffffffffff169050919050565b6000610bcc82610e45565b90508073ffffffffffffffffffffffffffffffffffffffff168373ffffffffffffffffffffffffffffffffffffffff161415610c5c576040517f08c379a00000000000000000000000000000000000000000000000000000000081526004018080602001828103825260218152602001806130ff6021913960400191505060405180910390610c59612b0d565b50505b8073ffffffffffffffffffffffffffffffffffffffff16610c7b6117bd565b73ffffffffffffffffffffffffffffffffffffffff161480610caa5750610ca981610ca46117bd565b611705565b5b610d08576040517f08c379a0000000000000000000000000000000000000000000000000000000008152600401808060200182810382526038815260200180612fce6038913960400191505060405180910390610d05612b0d565b50505b610d1283836117cd565b505050565b6000610d236002611896565b905090565b610d39610d336117bd565b826118ab565b610d97576040517f08c379a00000000000000000000000000000000000000000000000000000000081526004018080602001828103825260318152602001806131206031913960400191505060405180910390610d94612b0d565b50505b610da28383836119a8565b505050565b6000610dfa82600160008673ffffffffffffffffffffffffffffffffffffffff1673ffffffffffffffffffffffffffffffffffffffff168152602001908152602001600020611bfd90919063ffffffff16565b905092915050565b610e1d8383836040518060200160405280600081525061138c565b505050565b600080610e39836002611c1790919063ffffffff16565b50905080915050919050565b6000610e7582604051806060016040528060298152602001613030602991396002611c439092919063ffffffff16565b9050919050565b600a80610e87612b7b565b600181600116156101000203166002900480601f01602080910402602001604051908101604052809291908181526020018280610ec2612b7b565b60018160011615610100020316600290048015610f2e5780601f10610efc576101008083610eee612b7b565b040283529160200191610f2e565b820191906000526020600020905b81610f13612b7b565b81529060010190602001808311610f0a57829003601f168201915b505050505081565b6060600980610f43612b7b565b600181600116156101000203166002900480601f01602080910402602001604051908101604052809291908181526020018280610f7e612b7b565b60018160011615610100020316600290048015610fea5780601f10610fb8576101008083610faa612b7b565b040283529160200191610fea565b820191906000526020600020905b81610fcf612b7b565b81529060010190602001808311610fc657829003601f168201915b5050505050905090565b60008073ffffffffffffffffffffffffffffffffffffffff168273ffffffffffffffffffffffffffffffffffffffff161415611084576040517f08c379a000000000000000000000000000000000000000000000000000000000815260040180806020018281038252602a815260200180613006602a913960400191505060405180910390611081612b0d565b50505b6110cb600160008473ffffffffffffffffffffffffffffffffffffffff1673ffffffffffffffffffffffffffffffffffffffff168152602001908152602001600020611c62565b9050919050565b600b6000906110df612b7b565b906101000a900473ffffffffffffffffffffffffffffffffffffffff1681565b606060078061110c612b7b565b600181600116156101000203166002900480601f01602080910402602001604051908101604052809291908181526020018280611147612b7b565b600181600116156101000203166002900480156111b35780601f10611181576101008083611173612b7b565b0402835291602001916111b3565b820191906000526020600020905b81611198612b7b565b8152906001019060200180831161118f57829003601f168201915b5050505050905090565b6111c56117bd565b73ffffffffffffffffffffffffffffffffffffffff168273ffffffffffffffffffffffffffffffffffffffff16141561126f576040517f08c379a00000000000000000000000000000000000000000000000000000000081526004018080602001828103825260198152602001807f4552433732313a20617070726f766520746f2063616c6c6572000000000000008152506020019150506040518091039061126c612b0d565b50505b806005600061127c6117bd565b73ffffffffffffffffffffffffffffffffffffffff1673ffffffffffffffffffffffffffffffffffffffff16815260200190815260200160002060008473ffffffffffffffffffffffffffffffffffffffff1673ffffffffffffffffffffffffffffffffffffffff16815260200190815260200160002060006101000a81611302612b7b565b8160ff02191690831515021790611317612bde565b5050508173ffffffffffffffffffffffffffffffffffffffff166113396117bd565b73ffffffffffffffffffffffffffffffffffffffff167f17307eab39ab6107e8899845ad3d59bd9653f200f220920489ca2b5937696c318360405180821515815260200191505060405180910390a35050565b61139d6113976117bd565b836118ab565b6113fb576040517f08c379a000000000000000000000000000000000000000000000000000000000815260040180806020018281038252603181526020018061312060319139604001915050604051809103906113f8612b0d565b50505b61140784848484611c77565b50505050565b6060611418826117a0565b611476576040517f08c379a000000000000000000000000000000000000000000000000000000000815260040180806020018281038252602f8152602001806130d0602f913960400191505060405180910390611473612b0d565b50505b60006008600084815260200190815260200160002080611494612b7b565b600181600116156101000203166002900480601f016020809104026020016040519081016040528092919081815260200182806114cf612b7b565b6001816001161561010002031660029004801561153b5780601f106115095761010080836114fb612b7b565b04028352916020019161153b565b820191906000526020600020905b81611520612b7b565b8152906001019060200180831161151757829003601f168201915b50505050509050600061154c610f36565b90506000815114156115625781925050506116fe565b6000825111156116335780826040516020018083805190602001908083835b602083106115a45780518252602082019150602081019050602083039250611581565b6001836020036101000a03801982511681845116808217855250505050505090500182805190602001908083835b602083106115f557805182526020820191506020810190506020830392506115d2565b6001836020036101000a03801982511681845116808217855250505050505090500192505050604051602081830303815290604052925050506116fe565b8061163d85611cf2565b6040516020018083805190602001908083835b602083106116735780518252602082019150602081019050602083039250611650565b6001836020036101000a03801982511681845116808217855250505050505090500182805190602001908083835b602083106116c457805182526020820191506020810190506020830392506116a1565b6001836020036101000a03801982511681845116808217855250505050505090500192505050604051602081830303815290604052925050505b919050565b565b6000600560008473ffffffffffffffffffffffffffffffffffffffff1673ffffffffffffffffffffffffffffffffffffffff16815260200190815260200160002060008373ffffffffffffffffffffffffffffffffffffffff1673ffffffffffffffffffffffffffffffffffffffff16815260200190815260200160002060009061178e612b7b565b906101000a900460ff16905092915050565b60006117b6826002611e4290919063ffffffff16565b9050919050565b60005a6117c8612c43565b905090565b816004600083815260200190815260200160002060006101000a816117f0612b7b565b8173ffffffffffffffffffffffffffffffffffffffff021916908373ffffffffffffffffffffffffffffffffffffffff1602179061182c612bde565b505050808273ffffffffffffffffffffffffffffffffffffffff1661185083610e45565b73ffffffffffffffffffffffffffffffffffffffff167f8c5be1e5ebec7d5bd14f71427d1e84f3dd0314c0f7b2291e5b200ac8c7c3b92560405160405180910390a45050565b60006118a482600001611e5c565b9050919050565b60006118b6826117a0565b611914576040517f08c379a000000000000000000000000000000000000000000000000000000000815260040180806020018281038252602c815260200180612fa2602c913960400191505060405180910390611911612b0d565b50505b600061191f83610e45565b90508073ffffffffffffffffffffffffffffffffffffffff168473ffffffffffffffffffffffffffffffffffffffff16148061198e57508373ffffffffffffffffffffffffffffffffffffffff1661197684610b16565b73ffffffffffffffffffffffffffffffffffffffff16145b8061199f575061199e8185611705565b5b91505092915050565b8273ffffffffffffffffffffffffffffffffffffffff166119c882610e45565b73ffffffffffffffffffffffffffffffffffffffff1614611a3d576040517f08c379a00000000000000000000000000000000000000000000000000000000081526004018080602001828103825260298152602001806130a76029913960400191505060405180910390611a3a612b0d565b50505b600073ffffffffffffffffffffffffffffffffffffffff168273ffffffffffffffffffffffffffffffffffffffff161415611acc576040517f08c379a0000000000000000000000000000000000000000000000000000000008152600401808060200182810382526024815260200180612f586024913960400191505060405180910390611ac9612b0d565b50505b611ad7838383611e74565b611ae26000826117cd565b611b3381600160008673ffffffffffffffffffffffffffffffffffffffff1673ffffffffffffffffffffffffffffffffffffffff168152602001908152602001600020611e7990919063ffffffff16565b50611b8581600160008573ffffffffffffffffffffffffffffffffffffffff1673ffffffffffffffffffffffffffffffffffffffff168152602001908152602001600020611e9390919063ffffffff16565b50611b9c81836002611ead9092919063ffffffff16565b50808273ffffffffffffffffffffffffffffffffffffffff168473ffffffffffffffffffffffffffffffffffffffff167fddf252ad1be2c89b69c2b068fc378daa952ba7f163c4a11628f55a4df523b3ef60405160405180910390a4505050565b6000611c0c8360000183611ee2565b60001c905092915050565b600080600080611c2a8660000186611f83565b915091508160001c8160001c9350935050509250929050565b6000611c56846000018460001b84612041565b60001c90509392505050565b6000611c7082600001612155565b9050919050565b611c828484846119a8565b611c8e8484848461216d565b611cec576040517f08c379a0000000000000000000000000000000000000000000000000000000008152600401808060200182810382526032815260200180612f266032913960400191505060405180910390611ce9612b0d565b50505b50505050565b60606000821415611d3a576040518060400160405280600181526020017f30000000000000000000000000000000000000000000000000000000000000008152509050611e3d565b600082905060005b60008214611d64578080600101915050600a8281611d5c57fe5b049150611d42565b60008167ffffffffffffffff81118015611d8657600080611d83612b0d565b50505b506040519080825280601f01601f191660200182016040528015611db95781602001600182028036833780820191505090505b50905060006001830390508593505b60008414611e3557600a8481611dda57fe5b0660300160f81b82828060019003935081518110611df457fe5b60200101907effffffffffffffffffffffffffffffffffffffffffffffffffffffffffffff1916908160001a905350600a8481611e2d57fe5b049350611dc8565b819450505050505b919050565b6000611e54836000018360001b61238f565b905092915050565b60008160000180611e6b612b7b565b90509050919050565b505050565b6000611e8b836000018360001b6123b9565b905092915050565b6000611ea5836000018360001b6124f8565b905092915050565b6000611ed9846000018460001b8473ffffffffffffffffffffffffffffffffffffffff1660001b612591565b90509392505050565b6000818360000180611ef2612b7b565b905011611f53576040517f08c379a0000000000000000000000000000000000000000000000000000000008152600401808060200182810382526022815260200180612f046022913960400191505060405180910390611f50612b0d565b50505b826000018281611f61612b7b565b8110611f6957fe5b90600052602060002001611f7b612b7b565b905092915050565b600080828460000180611f94612b7b565b905011611ff5576040517f08c379a00000000000000000000000000000000000000000000000000000000081526004018080602001828103825260228152602001806130596022913960400191505060405180910390611ff2612b0d565b50505b6000846000018481612005612b7b565b811061200d57fe5b9060005260206000209060020201905080600001612029612b7b565b81600101612035612b7b565b92509250509250929050565b600080846001016000858152602001908152602001600020612061612b7b565b905060008114158390612118576040517f08c379a00000000000000000000000000000000000000000000000000000000081526004018080602001828103825283818151815260200191508051906020019080838360005b838110156120d45780820151818401526020810190506120b9565b50505050905090810190601f1680156121015780820380516001836020036101000a031916815260200191505b509250505060405180910390612115612b0d565b50505b5084600001600182038161212a612b7b565b811061213257fe5b906000526020600020906002020160010161214b612b7b565b9150509392505050565b60008160000180612164612b7b565b90509050919050565b600061218e8473ffffffffffffffffffffffffffffffffffffffff166126b6565b61219b5760019050612387565b600061230563150b7a0260e01b6121b06117bd565b888787604051602401808573ffffffffffffffffffffffffffffffffffffffff1681526020018473ffffffffffffffffffffffffffffffffffffffff16815260200183815260200180602001828103825283818151815260200191508051906020019080838360005b83811015612234578082015181840152602081019050612219565b50505050905090810190601f1680156122615780820380516001836020036101000a031916815260200191505b5095505050505050604051602081830303815290604052907bffffffffffffffffffffffffffffffffffffffffffffffffffffffff19166020820180517bffffffffffffffffffffffffffffffffffffffffffffffffffffffff8381831617835250505050604051806060016040528060328152602001612f26603291398773ffffffffffffffffffffffffffffffffffffffff166126d09092919063ffffffff16565b9050600081806020019051602081101561232757600080612324612b0d565b50505b8101908080519060200190929190505050905063150b7a0260e01b7bffffffffffffffffffffffffffffffffffffffffffffffffffffffff1916817bffffffffffffffffffffffffffffffffffffffffffffffffffffffff191614925050505b949350505050565b6000808360010160008481526020019081526020016000206123af612b7b565b1415905092915050565b6000808360010160008481526020019081526020016000206123d9612b7b565b9050600081146124ec5760006001820390506000600186600001806123fc612b7b565b90500390506000866000018281612411612b7b565b811061241957fe5b9060005260206000200161242b612b7b565b90508087600001848161243c612b7b565b811061244457fe5b906000526020600020018190612458612bde565b50505060018301876001016000838152602001908152602001600020819061247e612bde565b505050866000018061248e612b7b565b8061249557fe5b600190038181906000526020600020016000906124b0612bde565b5050906124bb612bde565b50508660010160008781526020019081526020016000206000906124dd612bde565b505060019450505050506124f2565b60009150505b92915050565b600061250483836126e8565b612586578260000182908060018161251a612b7b565b018082612525612bde565b505080915050600190039060005260206000200160009091909190915061254a612bde565b50508260000180612559612b7b565b9050836001016000848152602001908152602001600020819061257a612bde565b5050506001905061258b565b600090505b92915050565b6000808460010160008581526020019081526020016000206125b1612b7b565b90506000811415612671578460000160405180604001604052808681526020018581525090806001816125e2612b7b565b0180826125ed612bde565b50508091505060019003906000526020600020906002020160009091909190915060008201518160000161261f612bde565b5050602082015181600101612632612bde565b505050508460000180612643612b7b565b90508560010160008681526020019081526020016000208190612664612bde565b50505060019150506126af565b82856000016001830381612683612b7b565b811061268b57fe5b906000526020600020906002020160010181906126a6612bde565b50505060009150505b9392505050565b600080826126c2612ca0565b905060008111915050919050565b60606126df8484600085612712565b90509392505050565b600080836001016000848152602001908152602001600020612708612b7b565b1415905092915050565b6060826127795a63996d79a5598160e01b8152602081600483336000905af158600e01573d6000803e3d6000fd5b3d6001141558600a015760016000f35b8051925060005b604081101561277157600081830152602081019050612757565b50505061293c565b10156127d9576040517f08c379a0000000000000000000000000000000000000000000000000000000008152600401808060200182810382526026815260200180612f7c60269139604001915050604051809103906127d6612b0d565b50505b6127e2856126b6565b61285d576040517f08c379a000000000000000000000000000000000000000000000000000000000815260040180806020018281038252601d8152602001807f416464726573733a2063616c6c20746f206e6f6e2d636f6e74726163740000008152506020019150506040518091039061285a612b0d565b50505b6000808673ffffffffffffffffffffffffffffffffffffffff1685876040518082805190602001908083835b602083106128ac5780518252602082019150602081019050602083039250612889565b6001836020036101000a03801982511681845116808217855250505050505090500191505060006040518083038185875a6128e5612d03565b505050505050925050503d806000811461291b576040519150601f19603f3d011682016040523d82523d6000602084013e612920565b606091505b5091509150612930828286612a29565b92505050949350505050565b600073420000000000000000000000000000000000000673ffffffffffffffffffffffffffffffffffffffff166370a08231836040518263ffffffff1660e01b8152600401808273ffffffffffffffffffffffffffffffffffffffff16815260200191505060206040518083038186806129b4612ca0565b1580156129c9576000806129c6612b0d565b50505b505a6129d3612e03565b50505050501580156129f2573d6000803e3d60006129ef612b0d565b50505b505050506040513d6020811015612a1157600080612a0e612b0d565b50505b81019080805190602001909291905050509050919050565b60608315612a3957829050612b06565b600083511115612a5a5782518084602001612a52612b0d565b505050612b05565b816040517f08c379a00000000000000000000000000000000000000000000000000000000081526004018080602001828103825283818151815260200191508051906020019080838360005b83811015612ac1578082015181840152602081019050612aa6565b50505050905090810190601f168015612aee5780820380516001836020036101000a031916815260200191505b509250505060405180910390612b02612b0d565b50505b5b9392505050565b632a2a7adb598160e01b8152600481016020815285602082015260005b86811015612b48578086015181604084010152602081019050612b2a565b506020828760640184336000905af158600e01573d6000803e3d6000fd5b3d6001141558600a015760016000f35b505050565b6303daa959598160e01b8152836004820152602081602483336000905af158600e01573d6000803e3d6000fd5b3d6001141558600a015760016000f35b8051935060005b6040811015612bd957600081830152602081019050612bbf565b505050565b6322bd64c0598160e01b8152836004820152846024820152600081604483336000905af158600e01573d6000803e3d6000fd5b3d6001141558600a015760016000f35b60005b6040811015612c3e57600081830152602081019050612c24565b505050565b6373509064598160e01b8152602081600483336000905af158600e01573d6000803e3d6000fd5b3d6001141558600a015760016000f35b8051935060005b6040811015612c9b57600081830152602081019050612c81565b505050565b638435035b598160e01b8152836004820152602081602483336000905af158600e01573d6000803e3d6000fd5b3d6001141558600a015760016000f35b8051935060005b6040811015612cfe57600081830152602081019050612ce4565b505050565b6385979f76598160e01b8152612d42565b600081905081831115612d25578290505b92915050565b600081905081831015612d3c578290505b92915050565b836004820152846024820152606060448201528760648201526084810160005b89811015612d7d578089015181830152602081019050612d62565b506060828a60a40184336000905af158600e01573d6000803e3d6000fd5b3d6001141558600a015760016000f35b815160408301513d6000853e8c8c82606087013350600060045af15059612dd28e3d612d2b565b8d01612dde8187612d14565b5b82811015612df65760008152602081019050612ddf565b50839e5050505050505050565b638540661f598160e01b8152612e42565b600081905081831115612e25578290505b92915050565b600081905081831015612e3c578290505b92915050565b836004820152846024820152606060448201528660648201526084810160005b88811015612e7d578088015181830152602081019050612e62565b506060828960a40184336000905af158600e01573d6000803e3d6000fd5b3d6001141558600a015760016000f35b815160408301513d6000853e8b8b82606087013350600060045af15059612ed28d3d612e2b565b8c01612ede8187612e14565b5b82811015612ef65760008152602081019050612edf565b50839d505050505050505056fe456e756d657261626c655365743a20696e646578206f7574206f6620626f756e64734552433732313a207472616e7366657220746f206e6f6e20455243373231526563656976657220696d706c656d656e7465724552433732313a207472616e7366657220746f20746865207a65726f2061646472657373416464726573733a20696e73756666696369656e742062616c616e636520666f722063616c6c4552433732313a206f70657261746f7220717565727920666f72206e6f6e6578697374656e7420746f6b656e4552433732313a20617070726f76652063616c6c6572206973206e6f74206f776e6572206e6f7220617070726f76656420666f7220616c6c4552433732313a2062616c616e636520717565727920666f7220746865207a65726f20616464726573734552433732313a206f776e657220717565727920666f72206e6f6e6578697374656e7420746f6b656e456e756d657261626c654d61703a20696e646578206f7574206f6620626f756e64734552433732313a20617070726f76656420717565727920666f72206e6f6e6578697374656e7420746f6b656e4552433732313a207472616e73666572206f6620746f6b656e2074686174206973206e6f74206f776e4552433732314d657461646174613a2055524920717565727920666f72206e6f6e6578697374656e7420746f6b656e4552433732313a20617070726f76616c20746f2063757272656e74206f776e65724552433732313a207472616e736665722063616c6c6572206973206e6f74206f776e6572206e6f7220617070726f766564",
  "linkReferences": {},
  "deployedLinkReferences": {}
}